:100000000C9446000C9465000C9465000C946500FB
:100010000C9465000C9465000C9465000C946500CC
:100020000C9465000C9465000C9465000C946500BC
:100030000C9465000C9465000C9465000C946500AC
:100040000C9465000C9465000C9465000C9465009C
:100050000C9465000C9465000C9465000C9465008C
:100060000C9465000C9465000C9465000C9465007C
:100070000C9465000C9465000C9465000C9465006C
:100080000C9465000C9465000C94650011241FBE4F
:10009000CFEFD0E4DEBFCDBF11E0A0E0B1E0EAE5F4
:1000A000F3E000E00BBF02C007900D92A031B10752
:1000B000D9F721E0A0E1B1E001C01D92A231B20761
:1000C000E1F70E94A1000C94AB010C940000CF93C7
:1000D000DF9300D01F92CDB7DEB789837B836A831D
:1000E00089818A3031F48A819B81BC018DE00E9434
:1000F000670080EC90E0FC018081882F90E08072A6
:100100009927892BB1F386EC90E02981FC012083AB
:1001100080E090E00F900F900F90DF91CF910895C5
:10012000CF93DF93CDB7DEB78AE790E02AE730E0E0
:10013000F9012081206EFC0120830000DF91CF9126
:100140000895CF93DF93CDB7DEB781E290E0FC0155
:10015000108282E290E02FEFFC01208384E290E0A5
:100160002FEFFC01208385E290E0FC0110828AE2FF
:1001700090E02FEFFC0120838BE290E0FC011082E5
:100180000E94900088E790E0FC018081918190932B
:100190001101809310012091100130911101809183
:1001A0000E0190910F012817390730F085E290E099
:1001B0002FEFFC012083E6CF20910E0130910F013B
:1001C000C901880F991F880F991F880F991F821BDB
:1001D000930B9C013695279536952795369527954F
:1001E00080911001909111018217930730F085E200
:1001F00090E02FE7FC012083C5CF20910E013091C4
:100200000F01C901880F991F820F931F880F991F33
:100210009C0136952795369527953695279580919B
:100220001001909111018217930730F085E290E060
:100230002FE3FC012083A6CF20910E0130910F0106
:10024000C901880F991F880F991F820F931F9C0166
:1002500036952795369527953695279580911001E7
:10026000909111018217930730F085E290E02FE121
:10027000FC01208387CF80910E0190910F01880FA0
:10028000991F880F991F9C013695279536952795BC
:10029000369527958091100190911101821793074F
:1002A00030F085E290E02FE0FC0120836BCF2091BD
:1002B0000E0130910F01C901880F991F820F931F02
:1002C0009C013695279536952795369527958091EB
:1002D0001001909111018217930730F085E290E0B0
:1002E00027E0FC0120834ECF80910E0190910F01F9
:1002F000880F991F9C013695279536952795369539
:10030000279580911001909111018217930730F089
:1003100085E290E023E0FC01208334CF80910E0140
:1003200090910F019C013695279536952795369526
:10033000279580911001909111018217930730F059
:1003400085E290E021E0FC0120831CCF85E290E073
:0A035000FC01108217CFF894FFCFD4
:10035A0000000002000000006700000000005802D0
:00000001FF
